{
  "address": "0x34594aeE2Bca19c80936fD74C6B9e05675FFf7e6",
  "abi": [
    {
      "inputs": [
        {
          "internalType": "address",
          "name": "_oracle",
          "type": "address"
        }
      ],
      "stateMutability": "nonpayable",
      "type": "constructor"
    },
    {
      "inputs": [],
      "name": "InvalidKMSSignatures",
      "type": "error"
    },
    {
      "inputs": [],
      "name": "ZamaProtocolUnsupported",
      "type": "error"
    },
    {
      "anonymous": false,
      "inputs": [
        {
          "indexed": true,
          "internalType": "uint256",
          "name": "marketId",
          "type": "uint256"
        },
        {
          "indexed": true,
          "internalType": "address",
          "name": "bettor",
          "type": "address"
        },
        {
          "indexed": false,
          "internalType": "bytes32",
          "name": "amountHandle",
          "type": "bytes32"
        },
        {
          "indexed": false,
          "internalType": "bytes32",
          "name": "sideHandle",
          "type": "bytes32"
        }
      ],
      "name": "BetPlacedEncrypted",
      "type": "event"
    },
    {
      "anonymous": false,
      "inputs": [
        {
          "indexed": true,
          "internalType": "uint256",
          "name": "marketId",
          "type": "uint256"
        },
        {
          "indexed": false,
          "internalType": "bytes32",
          "name": "encryptedOutcomeHandle",
          "type": "bytes32"
        }
      ],
      "name": "DecryptionRequested",
      "type": "event"
    },
    {
      "anonymous": false,
      "inputs": [
        {
          "indexed": true,
          "internalType": "uint256",
          "name": "marketId",
          "type": "uint256"
        }
      ],
      "name": "MarketClosed",
      "type": "event"
    },
    {
      "anonymous": false,
      "inputs": [
        {
          "indexed": true,
          "internalType": "uint256",
          "name": "marketId",
          "type": "uint256"
        },
        {
          "indexed": true,
          "internalType": "address",
          "name": "creator",
          "type": "address"
        },
        {
          "indexed": false,
          "internalType": "string",
          "name": "question",
          "type": "string"
        },
        {
          "indexed": false,
          "internalType": "uint256",
          "name": "endTime",
          "type": "uint256"
        },
        {
          "indexed": false,
          "internalType": "uint256",
          "name": "resolutionTime",
          "type": "uint256"
        }
      ],
      "name": "MarketCreated",
      "type": "event"
    },
    {
      "anonymous": false,
      "inputs": [
        {
          "indexed": true,
          "internalType": "uint256",
          "name": "marketId",
          "type": "uint256"
        }
      ],
      "name": "MarketResolvedEncrypted",
      "type": "event"
    },
    {
      "anonymous": false,
      "inputs": [
        {
          "indexed": true,
          "internalType": "uint256",
          "name": "marketId",
          "type": "uint256"
        },
        {
          "indexed": false,
          "internalType": "bool",
          "name": "outcome",
          "type": "bool"
        }
      ],
      "name": "OutcomeDecrypted",
      "type": "event"
    },
    {
      "anonymous": false,
      "inputs": [
        {
          "indexed": true,
          "internalType": "uint256",
          "name": "marketId",
          "type": "uint256"
        },
        {
          "indexed": true,
          "internalType": "address",
          "name": "bettor",
          "type": "address"
        },
        {
          "indexed": false,
          "internalType": "uint256",
          "name": "profit",
          "type": "uint256"
        }
      ],
      "name": "ProfitClaimed",
      "type": "event"
    },
    {
      "anonymous": false,
      "inputs": [
        {
          "indexed": false,
          "internalType": "bytes32[]",
          "name": "handlesList",
          "type": "bytes32[]"
        },
        {
          "indexed": false,
          "internalType": "bytes",
          "name": "abiEncodedCleartexts",
          "type": "bytes"
        }
      ],
      "name": "PublicDecryptionVerified",
      "type": "event"
    },
    {
      "anonymous": false,
      "inputs": [
        {
          "indexed": true,
          "internalType": "uint256",
          "name": "marketId",
          "type": "uint256"
        },
        {
          "indexed": false,
          "internalType": "bytes32",
          "name": "encryptedVolumeYesHandle",
          "type": "bytes32"
        },
        {
          "indexed": false,
          "internalType": "bytes32",
          "name": "encryptedVolumeNoHandle",
          "type": "bytes32"
        }
      ],
      "name": "VolumeDecryptionRequested",
      "type": "event"
    },
    {
      "inputs": [
        {
          "internalType": "uint256",
          "name": "_marketId",
          "type": "uint256"
        },
        {
          "internalType": "address",
          "name": "_bettor",
          "type": "address"
        }
      ],
      "name": "canClaimProfit",
      "outputs": [
        {
          "internalType": "bool",
          "name": "",
          "type": "bool"
        }
      ],
      "stateMutability": "view",
      "type": "function"
    },
    {
      "inputs": [
        {
          "internalType": "uint256",
          "name": "_marketId",
          "type": "uint256"
        }
      ],
      "name": "cancelMarket",
      "outputs": [],
      "stateMutability": "nonpayable",
      "type": "function"
    },
    {
      "inputs": [
        {
          "internalType": "uint256",
          "name": "_marketId",
          "type": "uint256"
        },
        {
          "internalType": "uint256",
          "name": "_decryptedAmountYes",
          "type": "uint256"
        },
        {
          "internalType": "uint256",
          "name": "_decryptedAmountNo",
          "type": "uint256"
        },
        {
          "internalType": "bool",
          "name": "_decryptedSide",
          "type": "bool"
        },
        {
          "internalType": "bytes",
          "name": "_decryptionProof",
          "type": "bytes"
        }
      ],
      "name": "claimProfit",
      "outputs": [],
      "stateMutability": "nonpayable",
      "type": "function"
    },
    {
      "inputs": [
        {
          "internalType": "uint256",
          "name": "_marketId",
          "type": "uint256"
        }
      ],
      "name": "closeMarket",
      "outputs": [],
      "stateMutability": "nonpayable",
      "type": "function"
    },
    {
      "inputs": [],
      "name": "confidentialProtocolId",
      "outputs": [
        {
          "internalType": "uint256",
          "name": "",
          "type": "uint256"
        }
      ],
      "stateMutability": "view",
      "type": "function"
    },
    {
      "inputs": [
        {
          "internalType": "string",
          "name": "_question",
          "type": "string"
        },
        {
          "internalType": "uint256",
          "name": "_endTime",
          "type": "uint256"
        },
        {
          "internalType": "uint256",
          "name": "_resolutionTime",
          "type": "uint256"
        }
      ],
      "name": "createMarket",
      "outputs": [
        {
          "internalType": "uint256",
          "name": "",
          "type": "uint256"
        }
      ],
      "stateMutability": "nonpayable",
      "type": "function"
    },
    {
      "inputs": [],
      "name": "emergencyWithdraw",
      "outputs": [],
      "stateMutability": "nonpayable",
      "type": "function"
    },
    {
      "inputs": [
        {
          "internalType": "uint256",
          "name": "_marketId",
          "type": "uint256"
        },
        {
          "internalType": "address",
          "name": "_bettor",
          "type": "address"
        }
      ],
      "name": "getEncryptedBets",
      "outputs": [
        {
          "internalType": "bytes32",
          "name": "",
          "type": "bytes32"
        },
        {
          "internalType": "bytes32",
          "name": "",
          "type": "bytes32"
        },
        {
          "internalType": "bytes32",
          "name": "",
          "type": "bytes32"
        }
      ],
      "stateMutability": "view",
      "type": "function"
    },
    {
      "inputs": [
        {
          "internalType": "uint256",
          "name": "_marketId",
          "type": "uint256"
        }
      ],
      "name": "getEncryptedOutcome",
      "outputs": [
        {
          "internalType": "bytes32",
          "name": "",
          "type": "bytes32"
        }
      ],
      "stateMutability": "view",
      "type": "function"
    },
    {
      "inputs": [
        {
          "internalType": "uint256",
          "name": "_marketId",
          "type": "uint256"
        }
      ],
      "name": "getEncryptedVolumes",
      "outputs": [
        {
          "internalType": "bytes32",
          "name": "",
          "type": "bytes32"
        },
        {
          "internalType": "bytes32",
          "name": "",
          "type": "bytes32"
        }
      ],
      "stateMutability": "view",
      "type": "function"
    },
    {
      "inputs": [
        {
          "internalType": "uint256",
          "name": "_marketId",
          "type": "uint256"
        }
      ],
      "name": "getLiveMarketData",
      "outputs": [
        {
          "internalType": "string",
          "name": "question",
          "type": "string"
        },
        {
          "internalType": "enum HoloPredict.MarketStatus",
          "name": "status",
          "type": "uint8"
        },
        {
          "internalType": "uint256",
          "name": "endTime",
          "type": "uint256"
        },
        {
          "internalType": "bytes32",
          "name": "volumeYesHandle",
          "type": "bytes32"
        },
        {
          "internalType": "bytes32",
          "name": "volumeNoHandle",
          "type": "bytes32"
        },
        {
          "internalType": "bytes32",
          "name": "marketCapHandle",
          "type": "bytes32"
        },
        {
          "internalType": "bool",
          "name": "isLive",
          "type": "bool"
        }
      ],
      "stateMutability": "view",
      "type": "function"
    },
    {
      "inputs": [
        {
          "internalType": "uint256",
          "name": "_marketId",
          "type": "uint256"
        }
      ],
      "name": "getMarketInfo",
      "outputs": [
        {
          "internalType": "string",
          "name": "question",
          "type": "string"
        },
        {
          "internalType": "address",
          "name": "creator",
          "type": "address"
        },
        {
          "internalType": "enum HoloPredict.MarketStatus",
          "name": "status",
          "type": "uint8"
        },
        {
          "internalType": "uint256",
          "name": "endTime",
          "type": "uint256"
        },
        {
          "internalType": "uint256",
          "name": "resolutionTime",
          "type": "uint256"
        },
        {
          "internalType": "bool",
          "name": "outcomeDecrypted",
          "type": "bool"
        },
        {
          "internalType": "bool",
          "name": "outcomeValue",
          "type": "bool"
        },
        {
          "internalType": "bool",
          "name": "volumesDecrypted",
          "type": "bool"
        },
        {
          "internalType": "uint256",
          "name": "decryptedVolumeYes",
          "type": "uint256"
        },
        {
          "internalType": "uint256",
          "name": "decryptedVolumeNo",
          "type": "uint256"
        }
      ],
      "stateMutability": "view",
      "type": "function"
    },
    {
      "inputs": [
        {
          "internalType": "uint256",
          "name": "_marketId",
          "type": "uint256"
        }
      ],
      "name": "getMarketStats",
      "outputs": [
        {
          "internalType": "uint256",
          "name": "totalVolume",
          "type": "uint256"
        },
        {
          "internalType": "uint256",
          "name": "volumeYes",
          "type": "uint256"
        },
        {
          "internalType": "uint256",
          "name": "volumeNo",
          "type": "uint256"
        },
        {
          "internalType": "bool",
          "name": "outcome",
          "type": "bool"
        },
        {
          "internalType": "bool",
          "name": "isResolved",
          "type": "bool"
        }
      ],
      "stateMutability": "view",
      "type": "function"
    },
    {
      "inputs": [
        {
          "internalType": "uint256",
          "name": "_marketId",
          "type": "uint256"
        },
        {
          "internalType": "address",
          "name": "_bettor",
          "type": "address"
        }
      ],
      "name": "getUserBetInfo",
      "outputs": [
        {
          "internalType": "bytes32",
          "name": "amountYesHandle",
          "type": "bytes32"
        },
        {
          "internalType": "bytes32",
          "name": "amountNoHandle",
          "type": "bytes32"
        },
        {
          "internalType": "bytes32",
          "name": "sideHandle",
          "type": "bytes32"
        },
        {
          "internalType": "bool",
          "name": "hasClaimed",
          "type": "bool"
        }
      ],
      "stateMutability": "view",
      "type": "function"
    },
    {
      "inputs": [
        {
          "internalType": "uint256",
          "name": "_marketId",
          "type": "uint256"
        }
      ],
      "name": "makeUserBetsDecryptable",
      "outputs": [],
      "stateMutability": "nonpayable",
      "type": "function"
    },
    {
      "inputs": [],
      "name": "marketCount",
      "outputs": [
        {
          "internalType": "uint256",
          "name": "",
          "type": "uint256"
        }
      ],
      "stateMutability": "view",
      "type": "function"
    },
    {
      "inputs": [],
      "name": "oracle",
      "outputs": [
        {
          "internalType": "address",
          "name": "",
          "type": "address"
        }
      ],
      "stateMutability": "view",
      "type": "function"
    },
    {
      "inputs": [],
      "name": "owner",
      "outputs": [
        {
          "internalType": "address",
          "name": "",
          "type": "address"
        }
      ],
      "stateMutability": "view",
      "type": "function"
    },
    {
      "inputs": [
        {
          "internalType": "uint256",
          "name": "_marketId",
          "type": "uint256"
        },
        {
          "internalType": "externalEuint32",
          "name": "_encryptedAmount",
          "type": "bytes32"
        },
        {
          "internalType": "externalEbool",
          "name": "_encryptedSide",
          "type": "bytes32"
        },
        {
          "internalType": "bytes",
          "name": "_amountProof",
          "type": "bytes"
        },
        {
          "internalType": "bytes",
          "name": "_sideProof",
          "type": "bytes"
        }
      ],
      "name": "placeBet",
      "outputs": [],
      "stateMutability": "payable",
      "type": "function"
    },
    {
      "inputs": [
        {
          "internalType": "uint256",
          "name": "_marketId",
          "type": "uint256"
        }
      ],
      "name": "requestOutcomeDecryption",
      "outputs": [],
      "stateMutability": "nonpayable",
      "type": "function"
    },
    {
      "inputs": [
        {
          "internalType": "uint256",
          "name": "_marketId",
          "type": "uint256"
        }
      ],
      "name": "requestVolumeDecryption",
      "outputs": [],
      "stateMutability": "nonpayable",
      "type": "function"
    },
    {
      "inputs": [
        {
          "internalType": "address",
          "name": "_newOracle",
          "type": "address"
        }
      ],
      "name": "setOracle",
      "outputs": [],
      "stateMutability": "nonpayable",
      "type": "function"
    },
    {
      "inputs": [
        {
          "internalType": "uint256",
          "name": "_marketId",
          "type": "uint256"
        },
        {
          "internalType": "externalEbool",
          "name": "_encryptedOutcome",
          "type": "bytes32"
        },
        {
          "internalType": "bytes",
          "name": "_inputProof",
          "type": "bytes"
        }
      ],
      "name": "setOutcome",
      "outputs": [],
      "stateMutability": "nonpayable",
      "type": "function"
    },
    {
      "inputs": [
        {
          "internalType": "uint256",
          "name": "_marketId",
          "type": "uint256"
        },
        {
          "internalType": "bool",
          "name": "_decryptedOutcome",
          "type": "bool"
        },
        {
          "internalType": "bytes",
          "name": "_decryptionProof",
          "type": "bytes"
        }
      ],
      "name": "verifyAndSetDecryptedOutcome",
      "outputs": [],
      "stateMutability": "nonpayable",
      "type": "function"
    },
    {
      "inputs": [
        {
          "internalType": "uint256",
          "name": "_marketId",
          "type": "uint256"
        },
        {
          "internalType": "uint256",
          "name": "_decryptedVolumeYes",
          "type": "uint256"
        },
        {
          "internalType": "uint256",
          "name": "_decryptedVolumeNo",
          "type": "uint256"
        },
        {
          "internalType": "bytes",
          "name": "_decryptionProof",
          "type": "bytes"
        }
      ],
      "name": "verifyAndSetDecryptedVolumes",
      "outputs": [],
      "stateMutability": "nonpayable",
      "type": "function"
    },
    {
      "stateMutability": "payable",
      "type": "receive"
    }
  ],
  "transactionHash": "0xd5d56ed7ee72b78add8e6460d4770c303db4259850bc1d47483cf9048dd986ef",
  "args": [
    "0x3c5af21b0eaa40e434606f1856721dbb4fd86aae"
  ],
  "numDeployments": 1,
  "solcInputHash": "47cd192a90914e266d7d3df39bbb4b11",
  "bytecode": "0x6080346200018a57601f62002c1938819003918201601f19168301916001600160401b038311848410176200018e578084926020946040528339810103126200018a57516001600160a01b03808216918290036200018a5762000061620001c2565b5046600103620001485762000075620001c2565b5062000080620001a2565b5f81525f60208201525f6040820152905b6040818351169260018060a01b0319937f9e7b61f58c47dc699ac88507c4f5bb9f121c03808c5676a8078fe583e46497009085825416179055826020820151167f9e7b61f58c47dc699ac88507c4f5bb9f121c03808c5676a8078fe583e464970190858254161790550151167f9e7b61f58c47dc699ac88507c4f5bb9f121c03808c5676a8078fe583e464970290828254161790553381600254161760025560035416176003556040516129d79081620002428239f35b4662aa36a70362000164576200015d620001de565b9062000091565b46617a690362000178576200015d620001de565b6040516373cac13b60e01b8152600490fd5b5f80fd5b634e487b7160e01b5f52604160045260245ffd5b60405190606082016001600160401b038111838210176200018e57604052565b620001cc620001a2565b905f82525f60208301525f6040830152565b620001e8620001c2565b50620001f3620001a2565b73f0ffdc93b7e186bc2f8cb3daa75d86d1930a433d81527392c920834ec8941d2c77d188936e1f7a6f49c127602082015273be0e383937d564d7ff0bc3b46c51f0bf8d5c311a60408201529056fe6080604052600436101561001a575b3615610018575f80fd5b005b5f3560e01c80630c18aeeb14611dd05780631e053c5814611c925780633834905314611abc57806339496538146119ef5780633cee5922146119295780633ec791931461183157806358057fe51461176b57806358a7bf07146116ca57806360cd8cac146116885780636921fd3f1461115e5780637adbf973146110b15780637c16cd9e14610f605780637dc0d1d014610f3a578063808bcdf214610e725780638927b03014610e505780638da5cb5b14610e2a578063ae41809514610d29578063cfa51b16146109b2578063d1571a8714610958578063db2e21bc146108cc578063e0bbb86514610798578063e474722d14610296578063ec97908214610279578063f80d0e2a146101b15763fcb9cab00361000e57346101ad5760403660031901126101ad5760043561014d611e4a565b9061015b6001548210611fc9565b5f525f6020526001600160a01b03600c60405f200191165f52602052608060405f2080549060018101549060ff6003600283015492015416916040519384526020840152604083015215156060820152f35b5f80fd5b346101ad5760403660031901126101ad576004356101cd611e4a565b906101db6001548210611fc9565b5f525f6020526001600160a01b0360405f2091165f52600c810160205260405f209060ff600282015460a01c16916004831015610265576002602093149182610256575b82610247575b5081610237575b506040519015158152f35b60ff91506003015416158261022c565b6009015460ff16915083610225565b600b81015460ff16925061021f565b634e487b7160e01b5f52602160045260245ffd5b346101ad575f3660031901126101ad576020600154604051908152f35b60a03660031901126101ad5767ffffffffffffffff6004356064358281116101ad576102c6903690600401611e60565b90926084359081116101ad576102e0903690600401611e60565b906102ee6001548510611fc9565b835f525f60205260405f209160ff600284015460a01c166004811015610265576103189015612384565b60038301544210156107495734156107045760206103946103495f98338a52600c8701845260408a20973691611f93565b6001600160a01b035f805160206129ab833981519152541690604051998a8094819363045fc19560e11b83526024356004840152336024840152608060448401526084830190611e8e565b6004606483015203925af195861561063e575f966106d0575b506001600160a01b037f9e7b61f58c47dc699ac88507c4f5bb9f121c03808c5676a8078fe583e4649700541691823b156101ad57604051630f8e573b60e21b815260048101889052336024820152925f908490604490829084905af191821561063e5761042d93610425936106c1575b503691611f93565b6044356126ce565b9161044a6002820184815561044230866127d9565b3390546127d9565b61045261290f565b91839284156106b1575b801561069f575b60209060646001600160a01b035f805160206129ab8339815191525416955f604051978894859363f77f3f1d60e01b8552600485015260248401528160448401525af192831561063e575f9361066b575b506104bd61290f565b928493851561065b575b8015610649575b60209060646001600160a01b035f805160206129ab8339815191525416965f60405198899485936336024b2f60e21b8552600485015260248401528160448401525af193841561063e575f94610608575b50926105a76105a79261059c61054e6105446105af988c61053e6128c1565b91612572565b948b61053e6128c1565b9561058f60068254946001840195888754821590816105ff575b50156105e2578555508986555b61058460058201988954612649565b885501978854612649565b87556104423082546127d9565b6104423082546127d9565b3090546127d9565b60405192835260208301527fd0aca0acd9ab1686897dcce32140db5692ad1044fa7fc54f76823241fa24b43660403393a3005b6105eb91612649565b84556105f88a8754612649565b8655610575565b9050155f610568565b93506020843d602011610636575b8161062360209383611f55565b810103126101ad579251926105a761051f565b3d9150610616565b6040513d5f823e3d90fd5b50602061065461295d565b90506104ce565b935061066561295d565b936104c7565b9092506020813d602011610697575b8161068760209383611f55565b810103126101ad575191866104b4565b3d915061067a565b5060206106aa61295d565b9050610463565b92506106bb61295d565b9261045c565b6106ca90611ed9565b8861041d565b9095506020813d6020116106fc575b816106ec60209383611f55565b810103126101ad575194866103ad565b3d91506106df565b60405162461bcd60e51b815260206004820152601a60248201527f486f6c6f507265646963743a204d7573742073656e64204554480000000000006044820152606490fd5b60405162461bcd60e51b815260206004820152602160248201527f486f6c6f507265646963743a2042657474696e6720706572696f6420656e64656044820152601960fa1b6064820152608490fd5b346101ad5760803660031901126101ad5760243560443560043560643567ffffffffffffffff81116101ad576107d2903690600401611e60565b9390916107f56001600160a01b03806003541633149081156108be575b50612020565b6108026001548210611fc9565b5f525f60205260405f209060ff600283015460a01c1660048110156102655760089361083360026108aa931461206c565b600984019661084660ff8954161561212f565b6108a46040519261085684611f39565b600284526040366020860137600587015461087085612112565b52600687015461087f8561211f565b52604051928660208501528960408501526040845261089d84611f39565b3691611f93565b91612403565b60078201550155805460ff19166001179055005b9050600254163314876107ef565b346101ad575f3660031901126101ad576001600160a01b03600254166108f3813314612338565b478015610913575f80808093610018955af161090d6122bd565b506122ec565b60405162461bcd60e51b815260206004820152601760248201527f486f6c6f507265646963743a204e6f2062616c616e63650000000000000000006044820152606490fd5b346101ad5760203660031901126101ad576004356109796001548210611fc9565b5f525f60205260405f2060ff600282015460a01c166004811015610265576020916109a86002600a931461206c565b0154604051908152f35b346101ad5760603660031901126101ad5760043567ffffffffffffffff8082116101ad57366023830112156101ad576109f660249236908481600401359101611f93565b91803560443591610a1c6001600160a01b03806003541633149081156108be5750612020565b42821115610cd95781831115610c6f576001948554935f19808614610c5c578786018855855f526020965f885260405f2091878355898301958551928311610c495750610a69865461218a565b601f8111610c07575b508798995f98969798508a601f8411600114610b7657927fef6e6cdc1995ad8d47075ab3d22b04d4db5383ffc14b96c6a3a0f38bd9a0f914979892818093610b3e97965f94610b6b575b501b9260031b1c19161790555b6002810180547fffffffffffffffffffffff00000000000000000000000000000000000000000060ff60a01b19331691161790558660038201558260048201556105a7610b146128c1565b600583019081556009610b256128c1565b600685019081559301805460ff191690555430906127d9565b610b5360405192606084526060840190611e8e565b948783015260408201528033940390a3604051908152f35b8a015193508f610abc565b5f8981528c81209599959294939190601f198516908e5b828210610bef575050917fef6e6cdc1995ad8d47075ab3d22b04d4db5383ffc14b96c6a3a0f38bd9a0f914999a95939185610b3e98969410610bd7575b505050811b019055610ac9565b8901519060f88460031b161c191690558c8080610bca565b8a84015186558e9b509487019492830192018e610b8d565b865f52895f20601f840160051c8101918b8510610c3f575b601f0160051c01905b818110610c355750610a72565b5f81558b01610c28565b9091508190610c1f565b634e487b7160e01b5f9081526041600452fd5b83634e487b7160e01b5f5260116004525ffd5b60849060256040519162461bcd60e51b8352602060048401528201527f486f6c6f507265646963743a207265736f6c7574696f6e20616674657220656e60448201527f6454696d650000000000000000000000000000000000000000000000000000006064820152fd5b60849060236040519162461bcd60e51b8352602060048401528201527f486f6c6f507265646963743a20656e6454696d65206d7573742062652066757460448201526275726560e81b6064820152fd5b346101ad5760203660031901126101ad57600435610d4a6001548210611fc9565b805f525f60205260405f20600281019081549060ff8260a01c1690600482101561026557610d7a60039215612384565b01544210801590610e16575b15610dd15760ff60a01b1916740100000000000000000000000000000000000000001790557f9dc30b8eda31a6a144e092e5de600955523a6a925cc15cc1d1b9b4872cfa61555f80a2005b60405162461bcd60e51b815260206004820152601d60248201527f486f6c6f507265646963743a2043616e6e6f7420636c6f7365207965740000006044820152606490fd5b506001600160a01b03600254163314610d86565b346101ad575f3660031901126101ad5760206001600160a01b0360025416604051908152f35b346101ad575f3660031901126101ad576020610e6a612543565b604051908152f35b346101ad5760203660031901126101ad57600435610e936001548210611fc9565b5f525f602052600c60405f2001335f5260205260405f2080546001820190600282549301918254938215159081610f30575b5015610eeb57610ee5610ee592610ee0610018961515612271565b612840565b54612840565b60405162461bcd60e51b815260206004820152601a60248201527f486f6c6f507265646963743a204e6f2062657420706c616365640000000000006044820152606490fd5b9050151585610ec5565b346101ad575f3660031901126101ad5760206001600160a01b0360035416604051908152f35b346101ad5760203660031901126101ad57600435610f8a6001600160a01b03600254163314612338565b610f976001548210611fc9565b5f525f60205260405f20600281019081549060ff8260a01c1660048110156102655780159081156110a6575b501561106157600b015460ff16610ff65760ff60a01b191674030000000000000000000000000000000000000000179055005b60405162461bcd60e51b815260206004820152602a60248201527f486f6c6f507265646963743a2043616e6e6f742063616e63656c207265736f6c60448201527f766564206d61726b6574000000000000000000000000000000000000000000006064820152608490fd5b60405162461bcd60e51b815260206004820152601a60248201527f486f6c6f507265646963743a2043616e6e6f742063616e63656c0000000000006044820152606490fd5b600191501484610fc3565b346101ad5760203660031901126101ad576004356001600160a01b038082168092036101ad576110e690600254163314612338565b8015611119577fffffffffffffffffffffffff000000000000000000000000000000000000000060035416176003555f80f35b60405162461bcd60e51b815260206004820152601960248201527f486f6c6f507265646963743a207a65726f2061646472657373000000000000006044820152606490fd5b346101ad5760a03660031901126101ad576064351515606435036101ad5760843567ffffffffffffffff81116101ad5761119c903690600401611e60565b6111ab60015460043510611fc9565b6004355f525f60205260405f209160ff600284015460a01c1660048110156102655760026111d9911461206c565b60ff600b84015416156116385760ff600984015416156115e857335f52600c830160205260405f209160ff6003840154166115a35782549060018401546002850154908315158061159a575b1561152f57611235821515612271565b6040519361124285611f1d565b60038552606036602087013761125785612112565b526112618461211f565b5282516002101561151b576112a4936108a49160608501526040519260243560208501526044356040850152606435151560608501526060845261089d84611f1d565b6064351561151257602435915b82156114cd57600b81015460081c60ff169081806114c4575b80156114b1575b1561144657811561143b576007810154915b156114315760080154925b5f9382159081156113ca575b5050505081471061135f57600301805460ff191660011790558061131a57005b61132d5f80808085335af161090d6122bd565b60405190815233907f444bc9ead5154bc55b23c1e6b881e770ba22a7c9ee6ffd41bafea7ece00ed8af602060043592a3005b60405162461bcd60e51b815260206004820152602a60248201527f486f6c6f507265646963743a20496e73756666696369656e7420636f6e74726160448201527f63742062616c616e6365000000000000000000000000000000000000000000006064820152608490fd5b836113d9929394959650612264565b808302928304036114095761141d5704633b9aca00908181029181830414901517156114095790828080806112fa565b634e487b7160e01b5f52601160045260245ffd5b634e487b7160e01b5f52601260045260245ffd5b60070154926112ee565b6008810154916112e3565b60405162461bcd60e51b815260206004820152602860248201527f486f6c6f507265646963743a20446964206e6f7420626574206f6e2077696e6e60448201527f696e6720736964650000000000000000000000000000000000000000000000006064820152608490fd5b50811580156112d15750606435156112d1565b506064356112ca565b60405162461bcd60e51b815260206004820152601a60248201527f486f6c6f507265646963743a204e6f2062657420616d6f756e740000000000006044820152606490fd5b604435916112b1565b634e487b7160e01b5f52603260045260245ffd5b60405162461bcd60e51b815260206004820152603160248201527f486f6c6f507265646963743a204265742068616e646c6573206e6f742070726f60448201527f7065726c7920696e697469616c697a65640000000000000000000000000000006064820152608490fd5b50801515611225565b60405162461bcd60e51b815260206004820152601c60248201527f486f6c6f507265646963743a20416c726561647920636c61696d6564000000006044820152606490fd5b60405162461bcd60e51b815260206004820152602260248201527f486f6c6f507265646963743a20566f6c756d6573206e6f742064656372797074604482015261195960f21b6064820152608490fd5b60405162461bcd60e51b815260206004820152602260248201527f486f6c6f507265646963743a204f7574636f6d65206e6f742064656372797074604482015261195960f21b6064820152608490fd5b346101ad5760203660031901126101ad576004356116a96001548210611fc9565b5f525f6020526040805f206006600582015491015482519182526020820152f35b346101ad5760203660031901126101ad576004356116eb6001548210611fc9565b5f525f60205260405f20611701600182016121c2565b60ff600283015460a01c16600383015490600481101561026557836006600561173e9601549101549060405195869560e0875260e0870190611e8e565b9361174c6020870185611ecc565b6040860152606085015260808401525f60a08401521560c08301520390f35b346101ad5760203660031901126101ad5760043561178c6001548210611fc9565b5f525f60205260405f2060ff60098201541690815f146118275760078101546008820154926117bb8483612264565b925b60ff6002600b83015492015460a01c1694600486101561026557600260a09614928361181c575b83611813575b5060ff92936040519586526020860152604085015260081c161515606083015215156080820152f35b925060ff6117ea565b60ff831693506117e4565b5f80925f926117bd565b346101ad5760203660031901126101ad576004356118526001548210611fc9565b5f525f6020526118c860405f2061186b600182016121c2565b906002810154906003810154906004810154600b8201549060ff821660ff60098501541692815f146119215760081c60ff16915b83156119175760086007860154950154955b6118e86040519a8b9a610140808d528c0190611e8e565b986001600160a01b03811660208c015260ff60408c019160a01c16611ecc565b60608901526080880152151560a0870152151560c0860152151560e08501526101008401526101208301520390f35b5f958695506118b1565b505f9161189f565b346101ad5760203660031901126101ad5760043561195c6001600160a01b03806003541633149081156119e15750612020565b6119696001548210611fc9565b805f525f60205260405f2060ff600282015460a01c1690600482101561026557600a6020916119bb60027f0170267a42a2a50742099143ac731e7657f4a2a459fb53660f9a1094eb06cf0d951461206c565b6119cc60ff600b83015416156120b7565b016119d78154612840565b54604051908152a2005b9050600254163314836107ef565b346101ad5760203660031901126101ad57600435611a226001600160a01b03806003541633149081156119e15750612020565b611a2f6001548210611fc9565b805f525f60205260405f2060ff600282015460a01c166004811015610265577fe293a42c9427e1b005e7f0b5f1eb43ab3e1e28e975072cc512b3ff2cd2e4c48491611a7e60026040931461206c565b611a8f60ff6009830154161561212f565b60066005820191611aa08354612840565b0190611aac8254612840565b54905482519182526020820152a2005b346101ad5760603660031901126101ad5760043560443567ffffffffffffffff81116101ad57611af0903690600401611e60565b611b0f6001600160a01b0380600354163314908115611c845750612020565b611b1c6001548410611fc9565b825f525f60205260405f20600281019060ff825460a01c16600481101561026557600103611c345760048101544210611bc957611b75611b6d611ba395600a9561089d60ff600b87015416156120b7565b6024356126ce565b92839101557402000000000000000000000000000000000000000060ff60a01b1982541617905530906127d9565b7fe5197868e8d70ee5f8b074f481c8e437ca0e5a3990b466a25a25fd4d134a83b25f80a2005b60405162461bcd60e51b815260206004820152602860248201527f486f6c6f507265646963743a205265736f6c7574696f6e2074696d65206e6f7460448201527f20726561636865640000000000000000000000000000000000000000000000006064820152608490fd5b60405162461bcd60e51b815260206004820152602260248201527f486f6c6f507265646963743a204d61726b6574206d75737420626520636c6f73604482015261195960f21b6064820152608490fd5b9050600254163314856107ef565b346101ad5760603660031901126101ad576004356024358015158091036101ad5760443567ffffffffffffffff81116101ad57611cd3903690600401611e60565b91611cf36001600160a01b0380600354163314908115611dc25750612020565b611d006001548510611fc9565b835f526020915f835260405f2060ff600282015460a01c16906004821015610265577f59dd898ed6d893a2ce049b5bfea09cdfb12b055d0dae944164fe2993ac92e80e95611d536002611da3941461206c565b6108a4600b830194611d6960ff875416156120b7565b600a60405194611d7886611f01565b600186528936818801370154611d8d85612112565b5260405192878985015288845261089d84611f01565b805461ffff1916600883901b61ff0016176001179055604051908152a2005b9050600254163314866107ef565b346101ad5760403660031901126101ad57600435611dec611e4a565b90611dfa6001548210611fc9565b5f525f6020526001600160a01b03600c60405f200191165f5260205260405f208054611e4660026001840154930154604051938493846040919493926060820195825260208201520152565b0390f35b602435906001600160a01b03821682036101ad57565b9181601f840112156101ad5782359167ffffffffffffffff83116101ad57602083818601950101116101ad57565b91908251928382525f5b848110611eb8575050825f602080949584010152601f8019910116010190565b602081830181015184830182015201611e98565b9060048210156102655752565b67ffffffffffffffff8111611eed57604052565b634e487b7160e01b5f52604160045260245ffd5b6040810190811067ffffffffffffffff821117611eed57604052565b6080810190811067ffffffffffffffff821117611eed57604052565b6060810190811067ffffffffffffffff821117611eed57604052565b90601f8019910116810190811067ffffffffffffffff821117611eed57604052565b67ffffffffffffffff8111611eed57601f01601f191660200190565b929192611f9f82611f77565b91611fad6040519384611f55565b8294818452818301116101ad578281602093845f960137010152565b15611fd057565b60405162461bcd60e51b815260206004820152602260248201527f486f6c6f507265646963743a204d61726b657420646f6573206e6f74206578696044820152611cdd60f21b6064820152608490fd5b1561202757565b60405162461bcd60e51b815260206004820152601760248201527f486f6c6f507265646963743a204e6f74206f7261636c650000000000000000006044820152606490fd5b1561207357565b606460405162461bcd60e51b815260206004820152602060248201527f486f6c6f507265646963743a204d61726b6574206e6f74207265736f6c7665646044820152fd5b156120be57565b60405162461bcd60e51b815260206004820152602660248201527f486f6c6f507265646963743a204f7574636f6d6520616c7265616479206465636044820152651c9e5c1d195960d21b6064820152608490fd5b80511561151b5760200190565b80516001101561151b5760400190565b1561213657565b60405162461bcd60e51b815260206004820152602660248201527f486f6c6f507265646963743a20566f6c756d657320616c7265616479206465636044820152651c9e5c1d195960d21b6064820152608490fd5b90600182811c921680156121b8575b60208310146121a457565b634e487b7160e01b5f52602260045260245ffd5b91607f1691612199565b9060405191825f82546121d48161218a565b908184526020946001916001811690815f146122425750600114612204575b50505061220292500383611f55565b565b5f90815285812095935091905b81831061222a57505061220293508201015f80806121f3565b85548884018501529485019487945091830191612211565b9250505061220294925060ff191682840152151560051b8201015f80806121f3565b9190820180921161140957565b1561227857565b60405162461bcd60e51b815260206004820152601b60248201527f486f6c6f507265646963743a204e6f20736964652068616e646c6500000000006044820152606490fd5b3d156122e7573d906122ce82611f77565b916122dc6040519384611f55565b82523d5f602084013e565b606090565b156122f357565b60405162461bcd60e51b815260206004820152601c60248201527f486f6c6f507265646963743a205472616e73666572206661696c6564000000006044820152606490fd5b1561233f57565b60405162461bcd60e51b815260206004820152601660248201527f486f6c6f507265646963743a204e6f74206f776e6572000000000000000000006044820152606490fd5b1561238b57565b60405162461bcd60e51b815260206004820152601c60248201527f486f6c6f507265646963743a204d61726b6574206e6f74206f70656e000000006044820152606490fd5b9081518082526020808093019301915f5b8281106123ef575050505090565b8351855293810193928101926001016123e1565b909291925f60206124886001600160a01b037f9e7b61f58c47dc699ac88507c4f5bb9f121c03808c5676a8078fe583e4649702541660409788519485809481936378542ead60e01b835260606004840152612461606484018c6123d0565b9061247960031992838682030160248701528c611e8e565b91848303016044850152611e8e565b03925af1908115612539575f916124fe575b50156124ed57926124e87fc6366bab028b8d033cb362cfd1f2f3457ef4e92fc738b6788b90d5a7846367a093946124da83519484869586528501906123d0565b908382036020850152611e8e565b0390a1565b835163cf6c44e960e01b8152600490fd5b90506020813d602011612531575b8161251960209383611f55565b810103126101ad575180151581036101ad575f61249a565b3d915061250c565b85513d5f823e3d90fd5b4660010361255057600190565b4662aa36a7036125605761271190565b617a69461461256d575f90565b5f1990565b916125d7926020928115612639575b801561262b575b821561261b575b5f6001600160a01b035f805160206129ab83398151915254169260405196879586948593637702dcff60e01b8552600485016040919493926060820195825260208201520152565b03925af190811561063e575f916125ec575090565b90506020813d602011612613575b8161260760209383611f55565b810103126101ad575190565b3d91506125fa565b91506126256128c1565b9161258f565b506126346128c1565b612588565b905061264361295d565b90612581565b9081156126be575b80156126ac575b60209060646001600160a01b035f805160206129ab8339815191525416935f604051958694859363022f65e760e31b8552600485015260248401528160448401525af190811561063e575f916125ec575090565b5060206126b76128c1565b9050612658565b90506126c86128c1565b90612651565b91906020612721916001600160a01b0394855f805160206129ab8339815191525416905f60405180968195829463045fc19560e11b84526004840152336024840152608060448401526084830190611e8e565b82606483015203925af190811561063e575f916127a7575b5080927f9e7b61f58c47dc699ac88507c4f5bb9f121c03808c5676a8078fe583e46497005416803b156101ad57604051630f8e573b60e21b815260048101929092523360248301525f908290818381604481015b03925af1801561063e5761279e5750565b61220290611ed9565b90506020813d6020116127d1575b816127c260209383611f55565b810103126101ad57515f612739565b3d91506127b5565b6001600160a01b037f9e7b61f58c47dc699ac88507c4f5bb9f121c03808c5676a8078fe583e4649700541691823b156101ad57604051635ca4b5b160e11b815260048101929092526001600160a01b03166024820152905f9082908183816044810161278d565b6040519061284d82611f01565b600182526020368184013761286182612112565b526001600160a01b037f9e7b61f58c47dc699ac88507c4f5bb9f121c03808c5676a8078fe583e46497005416803b156101ad57604051637d6e912360e11b815260206004820152915f91839182908490829061278d9060248301906123d0565b5f60206001600160a01b035f805160206129ab8339815191525416604460405180948193639cd07acb60e01b8352816004840152600460248401525af190811561063e575f916125ec575090565b5f60206001600160a01b035f805160206129ab8339815191525416604460405180948193639cd07acb60e01b8352600160048401528160248401525af190811561063e575f916125ec575090565b5f60206001600160a01b035f805160206129ab8339815191525416604460405180948193639cd07acb60e01b83528160048401528160248401525af190811561063e575f916125ec57509056fe9e7b61f58c47dc699ac88507c4f5bb9f121c03808c5676a8078fe583e4649701a164736f6c6343000818000a",
  "devdoc": {
    "details": "Uses Zama FHE solidity library for encrypted types and checks.      Frontend/relayer must provide attestations / ZKPoKs when calling fromExternal      (so that the coprocessors sign only correct handles). The ZKPoK should bind      the encrypted plaintext value to the ETH sent (msg.value)  enforced off-chain.",
    "kind": "dev",
    "methods": {
      "canClaimProfit(uint256,address)": {
        "details": "User must decrypt locally to calculate actual profit"
      },
      "claimProfit(uint256,uint256,uint256,bool,bytes)": {
        "details": "User provides decrypted values locally (via SDK) and contract verifies them",
        "params": {
          "_decryptedAmountNo": "plaintext bet NO amount",
          "_decryptedAmountYes": "plaintext bet YES amount",
          "_decryptedSide": "plaintext bet side (true = YES, false = NO)",
          "_decryptionProof": "KMS decryption proof with signatures for amounts and side",
          "_marketId": "market id"
        }
      },
      "closeMarket(uint256)": {
        "params": {
          "_marketId": "market id"
        }
      },
      "createMarket(string,uint256,uint256)": {
        "params": {
          "_endTime": "Betting closes at this unix timestamp",
          "_question": "Market question text",
          "_resolutionTime": "Oracle should resolve after this timestamp"
        }
      },
      "makeUserBetsDecryptable(uint256)": {
        "details": "This allows users to decrypt their own bets locally via SDK      Note: This makes handles publicly decryptable, but users decrypt locally with their private key",
        "params": {
          "_marketId": "market id"
        }
      },
      "placeBet(uint256,bytes32,bytes32,bytes,bytes)": {
        "details": "Frontend must encrypt both the amount and side, and produce coprocessor attestations (ZKPoK).      The ZKPoK should bind the ciphertext plaintext to msg.value (ETH sent).",
        "params": {
          "_amountProof": "attestation / signatures from coprocessors for encrypted amount",
          "_encryptedAmount": "external encrypted amount handle (from relayer)",
          "_encryptedSide": "external encrypted side handle (true = YES, false = NO)",
          "_marketId": "market id",
          "_sideProof": "attestation / signatures from coprocessors for encrypted side"
        }
      },
      "requestOutcomeDecryption(uint256)": {
        "params": {
          "_marketId": "market id"
        }
      },
      "requestVolumeDecryption(uint256)": {
        "params": {
          "_marketId": "market id"
        }
      },
      "setOutcome(uint256,bytes32,bytes)": {
        "details": "Oracle encrypts the result: true if YES won, false if NO won",
        "params": {
          "_encryptedOutcome": "external encrypted outcome handle (true = YES won, false = NO won)",
          "_inputProof": "attestation / signatures proving the ciphertext is well formed",
          "_marketId": "market id"
        }
      },
      "verifyAndSetDecryptedOutcome(uint256,bool,bytes)": {
        "params": {
          "_decryptedOutcome": "decrypted boolean outcome (plaintext)",
          "_decryptionProof": "KMS decryption proof with signatures",
          "_marketId": "market id"
        }
      },
      "verifyAndSetDecryptedVolumes(uint256,uint256,uint256,bytes)": {
        "params": {
          "_decryptedVolumeNo": "plaintext total NO",
          "_decryptedVolumeYes": "plaintext total YES",
          "_decryptionProof": "KMS decryption proof with signatures for both volumes",
          "_marketId": "market id"
        }
      }
    },
    "title": "HoloPredict",
    "version": 1
  },
  "userdoc": {
    "errors": {
      "InvalidKMSSignatures()": [
        {
          "notice": "Returned if the returned KMS signatures are not valid."
        }
      ],
      "ZamaProtocolUnsupported()": [
        {
          "notice": "Returned if the Zama protocol is not supported on the current chain"
        }
      ]
    },
    "events": {
      "PublicDecryptionVerified(bytes32[],bytes)": {
        "notice": "This event is emitted when public decryption has been successfully verified."
      }
    },
    "kind": "user",
    "methods": {
      "canClaimProfit(uint256,address)": {
        "notice": "Check if user can claim profit (view-only)"
      },
      "cancelMarket(uint256)": {
        "notice": "Cancel a market before resolution (owner only)"
      },
      "claimProfit(uint256,uint256,uint256,bool,bytes)": {
        "notice": "Claim profit after market resolved and decryptions done"
      },
      "closeMarket(uint256)": {
        "notice": "Close a market (stop accepting bets)"
      },
      "createMarket(string,uint256,uint256)": {
        "notice": "Create a new prediction market (only oracle or owner)"
      },
      "emergencyWithdraw()": {
        "notice": "Emergency withdraw all ETH to owner (only owner)"
      },
      "getEncryptedBets(uint256,address)": {
        "notice": "Return encrypted bet handles for a user (bytes32)"
      },
      "getEncryptedOutcome(uint256)": {
        "notice": "Return encrypted outcome handle (bytes32) for a market"
      },
      "getEncryptedVolumes(uint256)": {
        "notice": "Return encrypted volume handles (bytes32) for a market"
      },
      "getLiveMarketData(uint256)": {
        "notice": "Live market data (returns encrypted handles only)"
      },
      "getMarketInfo(uint256)": {
        "notice": "Get market info - decrypted values returned only when available"
      },
      "getMarketStats(uint256)": {
        "notice": "Get market stats for resulted markets"
      },
      "getUserBetInfo(uint256,address)": {
        "notice": "Get user's bet info (returns encrypted handles only)"
      },
      "makeUserBetsDecryptable(uint256)": {
        "notice": "Make user's bet handles decryptable for local decryption"
      },
      "placeBet(uint256,bytes32,bytes32,bytes,bytes)": {
        "notice": "Place an encrypted bet on a market"
      },
      "requestOutcomeDecryption(uint256)": {
        "notice": "Request decryption of the outcome (emits an event for relayer/Gateway)"
      },
      "requestVolumeDecryption(uint256)": {
        "notice": "Request decryption of total volumes (emits an event for relayer/Gateway)"
      },
      "setOracle(address)": {
        "notice": "Update oracle address"
      },
      "setOutcome(uint256,bytes32,bytes)": {
        "notice": "Oracle sets the encrypted outcome (decides YES or NO won)"
      },
      "verifyAndSetDecryptedOutcome(uint256,bool,bytes)": {
        "notice": "Verify and set decrypted outcome using FHEVM v0.9 signature verification"
      },
      "verifyAndSetDecryptedVolumes(uint256,uint256,uint256,bytes)": {
        "notice": "Verify and set decrypted volumes using FHEVM v0.9 signature verification"
      }
    },
    "notice": "Confidential prediction market using Zama FHEVM",
    "version": 1
  },
  "storageLayout": {
    "storage": [
      {
        "astId": 39304,
        "contract": "contracts/HoloPredict.sol:HoloPredict",
        "label": "markets",
        "offset": 0,
        "slot": "0",
        "type": "t_mapping(t_uint256,t_struct(Market)39241_storage)"
      },
      {
        "astId": 39306,
        "contract": "contracts/HoloPredict.sol:HoloPredict",
        "label": "marketCount",
        "offset": 0,
        "slot": "1",
        "type": "t_uint256"
      },
      {
        "astId": 39308,
        "contract": "contracts/HoloPredict.sol:HoloPredict",
        "label": "owner",
        "offset": 0,
        "slot": "2",
        "type": "t_address"
      },
      {
        "astId": 39310,
        "contract": "contracts/HoloPredict.sol:HoloPredict",
        "label": "oracle",
        "offset": 0,
        "slot": "3",
        "type": "t_address"
      }
    ],
    "types": {
      "t_address": {
        "encoding": "inplace",
        "label": "address",
        "numberOfBytes": "20"
      },
      "t_bool": {
        "encoding": "inplace",
        "label": "bool",
        "numberOfBytes": "1"
      },
      "t_enum(MarketStatus)39191": {
        "encoding": "inplace",
        "label": "enum HoloPredict.MarketStatus",
        "numberOfBytes": "1"
      },
      "t_mapping(t_address,t_struct(Bet)39203_storage)": {
        "encoding": "mapping",
        "key": "t_address",
        "label": "mapping(address => struct HoloPredict.Bet)",
        "numberOfBytes": "32",
        "value": "t_struct(Bet)39203_storage"
      },
      "t_mapping(t_uint256,t_struct(Market)39241_storage)": {
        "encoding": "mapping",
        "key": "t_uint256",
        "label": "mapping(uint256 => struct HoloPredict.Market)",
        "numberOfBytes": "32",
        "value": "t_struct(Market)39241_storage"
      },
      "t_string_storage": {
        "encoding": "bytes",
        "label": "string",
        "numberOfBytes": "32"
      },
      "t_struct(Bet)39203_storage": {
        "encoding": "inplace",
        "label": "struct HoloPredict.Bet",
        "members": [
          {
            "astId": 39194,
            "contract": "contracts/HoloPredict.sol:HoloPredict",
            "label": "amountYes",
            "offset": 0,
            "slot": "0",
            "type": "t_userDefinedValueType(euint32)41272"
          },
          {
            "astId": 39197,
            "contract": "contracts/HoloPredict.sol:HoloPredict",
            "label": "amountNo",
            "offset": 0,
            "slot": "1",
            "type": "t_userDefinedValueType(euint32)41272"
          },
          {
            "astId": 39200,
            "contract": "contracts/HoloPredict.sol:HoloPredict",
            "label": "betSide",
            "offset": 0,
            "slot": "2",
            "type": "t_userDefinedValueType(ebool)41264"
          },
          {
            "astId": 39202,
            "contract": "contracts/HoloPredict.sol:HoloPredict",
            "label": "hasClaimed",
            "offset": 0,
            "slot": "3",
            "type": "t_bool"
          }
        ],
        "numberOfBytes": "128"
      },
      "t_struct(Market)39241_storage": {
        "encoding": "inplace",
        "label": "struct HoloPredict.Market",
        "members": [
          {
            "astId": 39205,
            "contract": "contracts/HoloPredict.sol:HoloPredict",
            "label": "marketId",
            "offset": 0,
            "slot": "0",
            "type": "t_uint256"
          },
          {
            "astId": 39207,
            "contract": "contracts/HoloPredict.sol:HoloPredict",
            "label": "question",
            "offset": 0,
            "slot": "1",
            "type": "t_string_storage"
          },
          {
            "astId": 39209,
            "contract": "contracts/HoloPredict.sol:HoloPredict",
            "label": "creator",
            "offset": 0,
            "slot": "2",
            "type": "t_address"
          },
          {
            "astId": 39212,
            "contract": "contracts/HoloPredict.sol:HoloPredict",
            "label": "status",
            "offset": 20,
            "slot": "2",
            "type": "t_enum(MarketStatus)39191"
          },
          {
            "astId": 39214,
            "contract": "contracts/HoloPredict.sol:HoloPredict",
            "label": "endTime",
            "offset": 0,
            "slot": "3",
            "type": "t_uint256"
          },
          {
            "astId": 39216,
            "contract": "contracts/HoloPredict.sol:HoloPredict",
            "label": "resolutionTime",
            "offset": 0,
            "slot": "4",
            "type": "t_uint256"
          },
          {
            "astId": 39219,
            "contract": "contracts/HoloPredict.sol:HoloPredict",
            "label": "totalVolumeYes",
            "offset": 0,
            "slot": "5",
            "type": "t_userDefinedValueType(euint32)41272"
          },
          {
            "astId": 39222,
            "contract": "contracts/HoloPredict.sol:HoloPredict",
            "label": "totalVolumeNo",
            "offset": 0,
            "slot": "6",
            "type": "t_userDefinedValueType(euint32)41272"
          },
          {
            "astId": 39224,
            "contract": "contracts/HoloPredict.sol:HoloPredict",
            "label": "decryptedVolumeYes",
            "offset": 0,
            "slot": "7",
            "type": "t_uint256"
          },
          {
            "astId": 39226,
            "contract": "contracts/HoloPredict.sol:HoloPredict",
            "label": "decryptedVolumeNo",
            "offset": 0,
            "slot": "8",
            "type": "t_uint256"
          },
          {
            "astId": 39228,
            "contract": "contracts/HoloPredict.sol:HoloPredict",
            "label": "volumesDecrypted",
            "offset": 0,
            "slot": "9",
            "type": "t_bool"
          },
          {
            "astId": 39231,
            "contract": "contracts/HoloPredict.sol:HoloPredict",
            "label": "outcome",
            "offset": 0,
            "slot": "10",
            "type": "t_userDefinedValueType(ebool)41264"
          },
          {
            "astId": 39233,
            "contract": "contracts/HoloPredict.sol:HoloPredict",
            "label": "outcomeDecrypted",
            "offset": 0,
            "slot": "11",
            "type": "t_bool"
          },
          {
            "astId": 39235,
            "contract": "contracts/HoloPredict.sol:HoloPredict",
            "label": "outcomeValue",
            "offset": 1,
            "slot": "11",
            "type": "t_bool"
          },
          {
            "astId": 39240,
            "contract": "contracts/HoloPredict.sol:HoloPredict",
            "label": "bets",
            "offset": 0,
            "slot": "12",
            "type": "t_mapping(t_address,t_struct(Bet)39203_storage)"
          }
        ],
        "numberOfBytes": "416"
      },
      "t_uint256": {
        "encoding": "inplace",
        "label": "uint256",
        "numberOfBytes": "32"
      },
      "t_userDefinedValueType(ebool)41264": {
        "encoding": "inplace",
        "label": "ebool",
        "numberOfBytes": "32"
      },
      "t_userDefinedValueType(euint32)41272": {
        "encoding": "inplace",
        "label": "euint32",
        "numberOfBytes": "32"
      }
    }
  }
}